{
  "contractName": "FireCoin",
  "abi": [
    {
      "inputs": [],
      "stateMutability": "nonpayable",
      "type": "constructor"
    },
    {
      "anonymous": false,
      "inputs": [
        {
          "indexed": true,
          "internalType": "address",
          "name": "owner",
          "type": "address"
        },
        {
          "indexed": true,
          "internalType": "address",
          "name": "spender",
          "type": "address"
        },
        {
          "indexed": false,
          "internalType": "uint256",
          "name": "value",
          "type": "uint256"
        }
      ],
      "name": "Approval",
      "type": "event"
    },
    {
      "anonymous": false,
      "inputs": [
        {
          "indexed": true,
          "internalType": "address",
          "name": "from",
          "type": "address"
        },
        {
          "indexed": true,
          "internalType": "address",
          "name": "to",
          "type": "address"
        },
        {
          "indexed": false,
          "internalType": "uint256",
          "name": "value",
          "type": "uint256"
        }
      ],
      "name": "Transfer",
      "type": "event"
    },
    {
      "inputs": [
        {
          "internalType": "address",
          "name": "owner",
          "type": "address"
        },
        {
          "internalType": "address",
          "name": "spender",
          "type": "address"
        }
      ],
      "name": "allowance",
      "outputs": [
        {
          "internalType": "uint256",
          "name": "",
          "type": "uint256"
        }
      ],
      "stateMutability": "view",
      "type": "function",
      "constant": true
    },
    {
      "inputs": [
        {
          "internalType": "address",
          "name": "spender",
          "type": "address"
        },
        {
          "internalType": "uint256",
          "name": "amount",
          "type": "uint256"
        }
      ],
      "name": "approve",
      "outputs": [
        {
          "internalType": "bool",
          "name": "",
          "type": "bool"
        }
      ],
      "stateMutability": "nonpayable",
      "type": "function"
    },
    {
      "inputs": [
        {
          "internalType": "address",
          "name": "account",
          "type": "address"
        }
      ],
      "name": "balanceOf",
      "outputs": [
        {
          "internalType": "uint256",
          "name": "",
          "type": "uint256"
        }
      ],
      "stateMutability": "view",
      "type": "function",
      "constant": true
    },
    {
      "inputs": [],
      "name": "decimals",
      "outputs": [
        {
          "internalType": "uint8",
          "name": "",
          "type": "uint8"
        }
      ],
      "stateMutability": "view",
      "type": "function",
      "constant": true
    },
    {
      "inputs": [
        {
          "internalType": "address",
          "name": "spender",
          "type": "address"
        },
        {
          "internalType": "uint256",
          "name": "subtractedValue",
          "type": "uint256"
        }
      ],
      "name": "decreaseAllowance",
      "outputs": [
        {
          "internalType": "bool",
          "name": "",
          "type": "bool"
        }
      ],
      "stateMutability": "nonpayable",
      "type": "function"
    },
    {
      "inputs": [
        {
          "internalType": "address",
          "name": "spender",
          "type": "address"
        },
        {
          "internalType": "uint256",
          "name": "addedValue",
          "type": "uint256"
        }
      ],
      "name": "increaseAllowance",
      "outputs": [
        {
          "internalType": "bool",
          "name": "",
          "type": "bool"
        }
      ],
      "stateMutability": "nonpayable",
      "type": "function"
    },
    {
      "inputs": [],
      "name": "name",
      "outputs": [
        {
          "internalType": "string",
          "name": "",
          "type": "string"
        }
      ],
      "stateMutability": "view",
      "type": "function",
      "constant": true
    },
    {
      "inputs": [],
      "name": "owner",
      "outputs": [
        {
          "internalType": "address",
          "name": "",
          "type": "address"
        }
      ],
      "stateMutability": "view",
      "type": "function",
      "constant": true
    },
    {
      "inputs": [],
      "name": "symbol",
      "outputs": [
        {
          "internalType": "string",
          "name": "",
          "type": "string"
        }
      ],
      "stateMutability": "view",
      "type": "function",
      "constant": true
    },
    {
      "inputs": [],
      "name": "totalSupply",
      "outputs": [
        {
          "internalType": "uint256",
          "name": "",
          "type": "uint256"
        }
      ],
      "stateMutability": "view",
      "type": "function",
      "constant": true
    },
    {
      "inputs": [
        {
          "internalType": "address",
          "name": "recipient",
          "type": "address"
        },
        {
          "internalType": "uint256",
          "name": "amount",
          "type": "uint256"
        }
      ],
      "name": "transfer",
      "outputs": [
        {
          "internalType": "bool",
          "name": "",
          "type": "bool"
        }
      ],
      "stateMutability": "nonpayable",
      "type": "function"
    },
    {
      "inputs": [
        {
          "internalType": "address",
          "name": "sender",
          "type": "address"
        },
        {
          "internalType": "address",
          "name": "recipient",
          "type": "address"
        },
        {
          "internalType": "uint256",
          "name": "amount",
          "type": "uint256"
        }
      ],
      "name": "transferFrom",
      "outputs": [
        {
          "internalType": "bool",
          "name": "",
          "type": "bool"
        }
      ],
      "stateMutability": "nonpayable",
      "type": "function"
    }
  ],
  "bytecode": "0x608060405233600560006101000a81548173ffffffffffffffffffffffffffffffffffffffff021916908373ffffffffffffffffffffffffffffffffffffffff1602179055503480156200005257600080fd5b506040518060400160405280600881526020017f46697265436f696e0000000000000000000000000000000000000000000000008152506040518060400160405280600481526020017f4652434e000000000000000000000000000000000000000000000000000000008152508160039080519060200190620000d7929190620002b2565b508060049080519060200190620000f0929190620002b2565b5050506200011733683635c9adc5dea000006200011d640100000000026401000000009004565b6200050e565b600073ffffffffffffffffffffffffffffffffffffffff168273ffffffffffffffffffffffffffffffffffffffff16141562000190576040517f08c379a000000000000000000000000000000000000000000000000000000000815260040162000187906200039a565b60405180910390fd5b620001ad60008383620002a8640100000000026401000000009004565b8060026000828254620001c19190620003ea565b92505081905550806000808473ffffffffffffffffffffffffffffffffffffffff1673ffffffffffffffffffffffffffffffffffffffff1681526020019081526020016000206000828254620002189190620003ea565b925050819055508173ffffffffffffffffffffffffffffffffffffffff16600073ffffffffffffffffffffffffffffffffffffffff167fddf252ad1be2c89b69c2b068fc378daa952ba7f163c4a11628f55a4df523b3ef836040516200027f9190620003bc565b60405180910390a3620002a460008383620002ad640100000000026401000000009004565b5050565b505050565b505050565b828054620002c09062000451565b90600052602060002090601f016020900481019282620002e4576000855562000330565b82601f10620002ff57805160ff191683800117855562000330565b8280016001018555821562000330579182015b828111156200032f57825182559160200191906001019062000312565b5b5090506200033f919062000343565b5090565b5b808211156200035e57600081600090555060010162000344565b5090565b600062000371601f83620003d9565b91506200037e82620004e5565b602082019050919050565b620003948162000447565b82525050565b60006020820190508181036000830152620003b58162000362565b9050919050565b6000602082019050620003d3600083018462000389565b92915050565b600082825260208201905092915050565b6000620003f78262000447565b9150620004048362000447565b9250827fffffffffffffffffffffffffffffffffffffffffffffffffffffffffffffffff038211156200043c576200043b62000487565b5b828201905092915050565b6000819050919050565b600060028204905060018216806200046a57607f821691505b60208210811415620004815762000480620004b6565b5b50919050565b7f4e487b7100000000000000000000000000000000000000000000000000000000600052601160045260246000fd5b7f4e487b7100000000000000000000000000000000000000000000000000000000600052602260045260246000fd5b7f45524332303a206d696e7420746f20746865207a65726f206164647265737300600082015250565b61142b806200051e6000396000f3fe608060405234801561001057600080fd5b50600436106100d1576000357c01000000000000000000000000000000000000000000000000000000009004806370a082311161008e57806370a08231146101c05780638da5cb5b146101f057806395d89b411461020e578063a457c2d71461022c578063a9059cbb1461025c578063dd62ed3e1461028c576100d1565b806306fdde03146100d6578063095ea7b3146100f457806318160ddd1461012457806323b872dd14610142578063313ce567146101725780633950935114610190575b600080fd5b6100de6102bc565b6040516100eb9190610ecb565b60405180910390f35b61010e60048036038101906101099190610cef565b61034e565b60405161011b9190610eb0565b60405180910390f35b61012c61036c565b6040516101399190610fcd565b60405180910390f35b61015c60048036038101906101579190610ca0565b610376565b6040516101699190610eb0565b60405180910390f35b61017a61046e565b6040516101879190610fe8565b60405180910390f35b6101aa60048036038101906101a59190610cef565b610477565b6040516101b79190610eb0565b60405180910390f35b6101da60048036038101906101d59190610c3b565b610523565b6040516101e79190610fcd565b60405180910390f35b6101f861056b565b6040516102059190610e95565b60405180910390f35b610216610591565b6040516102239190610ecb565b60405180910390f35b61024660048036038101906102419190610cef565b610623565b6040516102539190610eb0565b60405180910390f35b61027660048036038101906102719190610cef565b61070e565b6040516102839190610eb0565b60405180910390f35b6102a660048036038101906102a19190610c64565b61072c565b6040516102b39190610fcd565b60405180910390f35b6060600380546102cb906110fd565b80601f01602080910402602001604051908101604052809291908181526020018280546102f7906110fd565b80156103445780601f1061031957610100808354040283529160200191610344565b820191906000526020600020905b81548152906001019060200180831161032757829003601f168201915b5050505050905090565b600061036261035b6107b3565b84846107bb565b6001905092915050565b6000600254905090565b6000610383848484610986565b6000600160008673ffffffffffffffffffffffffffffffffffffffff1673ffffffffffffffffffffffffffffffffffffffff16815260200190815260200160002060006103ce6107b3565b73ffffffffffffffffffffffffffffffffffffffff1673ffffffffffffffffffffffffffffffffffffffff1681526020019081526020016000205490508281101561044e576040517f08c379a000000000000000000000000000000000000000000000000000000000815260040161044590610f4d565b60405180910390fd5b6104628561045a6107b3565b8584036107bb565b60019150509392505050565b60006012905090565b60006105196104846107b3565b8484600160006104926107b3565b73ffffffffffffffffffffffffffffffffffffffff1673ffffffffffffffffffffffffffffffffffffffff16815260200190815260200160002060008873ffffffffffffffffffffffffffffffffffffffff1673ffffffffffffffffffffffffffffffffffffffff16815260200190815260200160002054610514919061101f565b6107bb565b6001905092915050565b60008060008373ffffffffffffffffffffffffffffffffffffffff1673ffffffffffffffffffffffffffffffffffffffff168152602001908152602001600020549050919050565b600560009054906101000a900473ffffffffffffffffffffffffffffffffffffffff1681565b6060600480546105a0906110fd565b80601f01602080910402602001604051908101604052809291908181526020018280546105cc906110fd565b80156106195780601f106105ee57610100808354040283529160200191610619565b820191906000526020600020905b8154815290600101906020018083116105fc57829003601f168201915b5050505050905090565b600080600160006106326107b3565b73ffffffffffffffffffffffffffffffffffffffff1673ffffffffffffffffffffffffffffffffffffffff16815260200190815260200160002060008573ffffffffffffffffffffffffffffffffffffffff1673ffffffffffffffffffffffffffffffffffffffff168152602001908152602001600020549050828110156106ef576040517f08c379a00000000000000000000000000000000000000000000000000000000081526004016106e690610fad565b60405180910390fd5b6107036106fa6107b3565b858584036107bb565b600191505092915050565b600061072261071b6107b3565b8484610986565b6001905092915050565b6000600160008473ffffffffffffffffffffffffffffffffffffffff1673ffffffffffffffffffffffffffffffffffffffff16815260200190815260200160002060008373ffffffffffffffffffffffffffffffffffffffff1673ffffffffffffffffffffffffffffffffffffffff16815260200190815260200160002054905092915050565b600033905090565b600073ffffffffffffffffffffffffffffffffffffffff168373ffffffffffffffffffffffffffffffffffffffff16141561082b576040517f08c379a000000000000000000000000000000000000000000000000000000000815260040161082290610f8d565b60405180910390fd5b600073ffffffffffffffffffffffffffffffffffffffff168273ffffffffffffffffffffffffffffffffffffffff16141561089b576040517f08c379a000000000000000000000000000000000000000000000000000000000815260040161089290610f0d565b60405180910390fd5b80600160008573ffffffffffffffffffffffffffffffffffffffff1673ffffffffffffffffffffffffffffffffffffffff16815260200190815260200160002060008473ffffffffffffffffffffffffffffffffffffffff1673ffffffffffffffffffffffffffffffffffffffff168152602001908152602001600020819055508173ffffffffffffffffffffffffffffffffffffffff168373ffffffffffffffffffffffffffffffffffffffff167f8c5be1e5ebec7d5bd14f71427d1e84f3dd0314c0f7b2291e5b200ac8c7c3b925836040516109799190610fcd565b60405180910390a3505050565b600073ffffffffffffffffffffffffffffffffffffffff168373ffffffffffffffffffffffffffffffffffffffff1614156109f6576040517f08c379a00000000000000000000000000000000000000000000000000000000081526004016109ed90610f6d565b60405180910390fd5b600073ffffffffffffffffffffffffffffffffffffffff168273ffffffffffffffffffffffffffffffffffffffff161415610a66576040517f08c379a0000000000000000000000000000000000000000000000000000000008152600401610a5d90610eed565b60405180910390fd5b610a71838383610c07565b60008060008573ffffffffffffffffffffffffffffffffffffffff1673ffffffffffffffffffffffffffffffffffffffff16815260200190815260200160002054905081811015610af7576040517f08c379a0000000000000000000000000000000000000000000000000000000008152600401610aee90610f2d565b60405180910390fd5b8181036000808673ffffffffffffffffffffffffffffffffffffffff1673ffffffffffffffffffffffffffffffffffffffff16815260200190815260200160002081905550816000808573ffffffffffffffffffffffffffffffffffffffff1673ffffffffffffffffffffffffffffffffffffffff1681526020019081526020016000206000828254610b8a919061101f565b925050819055508273ffffffffffffffffffffffffffffffffffffffff168473ffffffffffffffffffffffffffffffffffffffff167fddf252ad1be2c89b69c2b068fc378daa952ba7f163c4a11628f55a4df523b3ef84604051610bee9190610fcd565b60405180910390a3610c01848484610c0c565b50505050565b505050565b505050565b600081359050610c20816113c7565b92915050565b600081359050610c35816113de565b92915050565b600060208284031215610c4d57600080fd5b6000610c5b84828501610c11565b91505092915050565b60008060408385031215610c7757600080fd5b6000610c8585828601610c11565b9250506020610c9685828601610c11565b9150509250929050565b600080600060608486031215610cb557600080fd5b6000610cc386828701610c11565b9350506020610cd486828701610c11565b9250506040610ce586828701610c26565b9150509250925092565b60008060408385031215610d0257600080fd5b6000610d1085828601610c11565b9250506020610d2185828601610c26565b9150509250929050565b610d3481611075565b82525050565b610d4381611087565b82525050565b6000610d5482611003565b610d5e818561100e565b9350610d6e8185602086016110ca565b610d778161118d565b840191505092915050565b6000610d8f60238361100e565b9150610d9a8261119e565b604082019050919050565b6000610db260228361100e565b9150610dbd826111ed565b604082019050919050565b6000610dd560268361100e565b9150610de08261123c565b604082019050919050565b6000610df860288361100e565b9150610e038261128b565b604082019050919050565b6000610e1b60258361100e565b9150610e26826112da565b604082019050919050565b6000610e3e60248361100e565b9150610e4982611329565b604082019050919050565b6000610e6160258361100e565b9150610e6c82611378565b604082019050919050565b610e80816110b3565b82525050565b610e8f816110bd565b82525050565b6000602082019050610eaa6000830184610d2b565b92915050565b6000602082019050610ec56000830184610d3a565b92915050565b60006020820190508181036000830152610ee58184610d49565b905092915050565b60006020820190508181036000830152610f0681610d82565b9050919050565b60006020820190508181036000830152610f2681610da5565b9050919050565b60006020820190508181036000830152610f4681610dc8565b9050919050565b60006020820190508181036000830152610f6681610deb565b9050919050565b60006020820190508181036000830152610f8681610e0e565b9050919050565b60006020820190508181036000830152610fa681610e31565b9050919050565b60006020820190508181036000830152610fc681610e54565b9050919050565b6000602082019050610fe26000830184610e77565b92915050565b6000602082019050610ffd6000830184610e86565b92915050565b600081519050919050565b600082825260208201905092915050565b600061102a826110b3565b9150611035836110b3565b9250827fffffffffffffffffffffffffffffffffffffffffffffffffffffffffffffffff0382111561106a5761106961112f565b5b828201905092915050565b600061108082611093565b9050919050565b60008115159050919050565b600073ffffffffffffffffffffffffffffffffffffffff82169050919050565b6000819050919050565b600060ff82169050919050565b60005b838110156110e85780820151818401526020810190506110cd565b838111156110f7576000848401525b50505050565b6000600282049050600182168061111557607f821691505b602082108114156111295761112861115e565b5b50919050565b7f4e487b7100000000000000000000000000000000000000000000000000000000600052601160045260246000fd5b7f4e487b7100000000000000000000000000000000000000000000000000000000600052602260045260246000fd5b6000601f19601f8301169050919050565b7f45524332303a207472616e7366657220746f20746865207a65726f206164647260008201527f6573730000000000000000000000000000000000000000000000000000000000602082015250565b7f45524332303a20617070726f766520746f20746865207a65726f20616464726560008201527f7373000000000000000000000000000000000000000000000000000000000000602082015250565b7f45524332303a207472616e7366657220616d6f756e742065786365656473206260008201527f616c616e63650000000000000000000000000000000000000000000000000000602082015250565b7f45524332303a207472616e7366657220616d6f756e742065786365656473206160008201527f6c6c6f77616e6365000000000000000000000000000000000000000000000000602082015250565b7f45524332303a207472616e736665722066726f6d20746865207a65726f20616460008201527f6472657373000000000000000000000000000000000000000000000000000000602082015250565b7f45524332303a20617070726f76652066726f6d20746865207a65726f2061646460008201527f7265737300000000000000000000000000000000000000000000000000000000602082015250565b7f45524332303a2064656372656173656420616c6c6f77616e63652062656c6f7760008201527f207a65726f000000000000000000000000000000000000000000000000000000602082015250565b6113d081611075565b81146113db57600080fd5b50565b6113e7816110b3565b81146113f257600080fd5b5056fea2646970667358221220c6c30bb10174b02f48ac47d59c4516f9067f8d9269ff6f14f8716a7c735d483564736f6c63430008040033",
  "immutableReferences": {},
  "source": "// SPDX-License-Identifier: MIT\r\n\r\npragma solidity ^0.8.4;\r\nimport \"@openzeppelin/contracts/token/ERC20/ERC20.sol\";\r\n\r\ncontract FireCoin is ERC20 {\r\n    address public owner = msg.sender;\r\n\r\n    constructor() ERC20(\"FireCoin\", \"FRCN\") {\r\n        _mint(msg.sender, 1000000000000000000000);\r\n    }\r\n}",
  "sourcePath": "C:/Users//Desktop/4ire/fire-coin/contracts/FireCoin.sol",
  "compiler": {
    "name": "solc",
    "version": "0.8.4+commit.c7e474f2.Emscripten.clang"
  },
  "schemaVersion": "3.3.4",
  "updatedAt": "2021-08-10T04:56:31.984Z",
  "networkType": "ethereum",
  "devdoc": {
    "kind": "dev",
    "methods": {
      "allowance(address,address)": {
        "details": "See {IERC20-allowance}."
      },
      "approve(address,uint256)": {
        "details": "See {IERC20-approve}. Requirements: - `spender` cannot be the zero address."
      },
      "balanceOf(address)": {
        "details": "See {IERC20-balanceOf}."
      },
      "decimals()": {
        "details": "Returns the number of decimals used to get its user representation. For example, if `decimals` equals `2`, a balance of `505` tokens should be displayed to a user as `5,05` (`505 / 10 ** 2`). Tokens usually opt for a value of 18, imitating the relationship between Ether and Wei. This is the value {ERC20} uses, unless this function is overridden; NOTE: This information is only used for _display_ purposes: it in no way affects any of the arithmetic of the contract, including {IERC20-balanceOf} and {IERC20-transfer}."
      },
      "decreaseAllowance(address,uint256)": {
        "details": "Atomically decreases the allowance granted to `spender` by the caller. This is an alternative to {approve} that can be used as a mitigation for problems described in {IERC20-approve}. Emits an {Approval} event indicating the updated allowance. Requirements: - `spender` cannot be the zero address. - `spender` must have allowance for the caller of at least `subtractedValue`."
      },
      "increaseAllowance(address,uint256)": {
        "details": "Atomically increases the allowance granted to `spender` by the caller. This is an alternative to {approve} that can be used as a mitigation for problems described in {IERC20-approve}. Emits an {Approval} event indicating the updated allowance. Requirements: - `spender` cannot be the zero address."
      },
      "name()": {
        "details": "Returns the name of the token."
      },
      "symbol()": {
        "details": "Returns the symbol of the token, usually a shorter version of the name."
      },
      "totalSupply()": {
        "details": "See {IERC20-totalSupply}."
      },
      "transfer(address,uint256)": {
        "details": "See {IERC20-transfer}. Requirements: - `recipient` cannot be the zero address. - the caller must have a balance of at least `amount`."
      },
      "transferFrom(address,address,uint256)": {
        "details": "See {IERC20-transferFrom}. Emits an {Approval} event indicating the updated allowance. This is not required by the EIP. See the note at the beginning of {ERC20}. Requirements: - `sender` and `recipient` cannot be the zero address. - `sender` must have a balance of at least `amount`. - the caller must have allowance for ``sender``'s tokens of at least `amount`."
      }
    },
    "version": 1
  },
  "userdoc": {
    "kind": "user",
    "methods": {},
    "version": 1
  }
}